:100000000C9434000C9451000C9451000C94510049
:100010000C9451000C9451000C9451000C94680104
:100020000C9451000C9451000C9451000C949401C8
:100030000C9451000C9451000C9451000C945100FC
:100040000C9451000C9451000C9451000C945100EC
:100050000C9451000C9451000C9451000C945100DC
:100060000C9451000C94510011241FBECFEFD8E026
:10007000DEBFCDBF11E0A0E0B1E0EEECF5E002C0E4
:1000800005900D92AA30B107D9F711E0AAE0B1E0CE
:1000900001C01D92A833B107E1F70E94FE010C9444
:1000A000E5020C94000082E191E090933701809387
:1000B0003601909311018093100180969093330143
:1000C0008093320180E290E0909335018093340177
:1000D0000895982F80910A018032D9F0E0910501AE
:1000E000F09106019193F0930601E0930501809150
:1000F0000A018F5F80930A018091030190910401AE
:10010000E817F90731F482E191E0909306018093BA
:10011000050180910A01813029F48091700082608C
:1001200080937000089530910A01332391F1E0919A
:100130000101F09102012081922F92959F7027FF7B
:10014000906195B9892F806485B995B9892F807F91
:100150002F70822B85B9982F906495B985B915B801
:1001600080910001815080930001882351F482E145
:1001700091E0909302018093010180E2809300015D
:1001800005C03196F0930201E093010131503093A4
:100190000A0180910A01882329F4809170008D7FE3
:1001A000809370000895882321F080E880930B01EC
:1001B000089510920B010895982F92959F70282F03
:1001C0002F7080910B01882311F09068206895B9F9
:1001D00095B9892F806485B985B995B995B925B93F
:1001E00025B9822F806485B985B925B925B915B897
:1001F0008AE68A95F1F70895482F42954F70942F1B
:100200009061382F3F70232F206180910B0188234C
:1002100021F0942F9069232F206995B995B9892FE2
:10022000806485B985B995B995B925B925B9822F65
:10023000806485B985B925B925B915B885E88A9549
:10024000F1F708950F931F9381E00E94DC0000EA0C
:100250001FE0C8010197F1F782E00E94DC00C801AD
:100260000197F1F71F910F91089580910B01982F3D
:10027000926095B995B9826485B985B995B995B9F2
:1002800015B885E88A95F1F788E20E94DC0086E0DF
:100290000E94DC008CE00E94DC000E942201089594
:1002A000813011F080EC01C080E861506F70862BC6
:1002B0000E94DC000895CF93DF93EC0103C00E94FD
:1002C000FC00219688818823D1F7DF91CF91089592
:1002D0001F920F920FB60F9211242F933F934F93BB
:1002E0005F936F937F938F939F93AF93BF93EF939E
:1002F000FF935D9A80910A01803211F00E94930071
:100300005D981092B200FF91EF91BF91AF919F91D4
:100310008F917F916F915F914F913F912F910F90AE
:100320000FBE0F901F9018951F920F920FB60F924D
:1003300011240F931F932F933F934F935F936F93CA
:100340007F938F939F93AF93BF93EF93FF93DF932D
:10035000CF93CDB7DEB76097DEBFCDBF5C9A8091FB
:100360007A00806480937A0080917A0086FDFCCFC9
:100370002091790080910801882341F030E090E0DD
:10038000019702C0359527958A95E2F720930F01D2
:1003900080910E018823D1F48E010F5F1F4FC80199
:1003A00067E071E040910F010E94A00280E80E9486
:1003B000690004C00E9469000F5F1F4FF80180812F
:1003C0008823C1F780910F0187BD5C986096DEBFDE
:1003D000CDBFCF91DF91FF91EF91BF91AF919F91F1
:1003E0008F917F916F915F914F913F912F911F91CD
:1003F0000F910F900FBE0F901F901895CF92DF9224
:10040000EF92FF920F931F93DF93CF93CDB7DEB799
:1004100060970FB6F894DEBF0FBECDBF84B18FEFEB
:1004200084B98CEF8AB917B8809164008093640016
:1004300084B5836884BD85B5816085BD8091800069
:1004400080938000809181008A60809381008091F8
:100450006F00826080936F0088EE93E09093890034
:10046000809388008091B00082608093B00080917A
:10047000B10082608093B1008091700082608093AF
:10048000700082E38093B30080917C00806680934B
:100490007C0080917C00816080937C0080917A0058
:1004A000806880937A0080917A00866080937A00D9
:1004B0000E9435010E942201789490E0EE24E3949A
:1004C0006E010894C11CD11CF9B02F2DF0FC09C09D
:1004D00090FF07C080910801823018F0815080930E
:1004E000080121FD0BC091FF09C080910C018B30E8
:1004F00028F4809108018F5F8093080140910801E2
:1005000080910D018417B1F0E0920E01C60167E001
:1005100071E00E94A00280EC0E946900860104C084
:100520000E9469000F5F1F4FF80180818823C1F787
:1005300010920E018091080180930D019F2DC4CF70
:10054000DC01FB0102C08D93319680818823D9F7AD
:10055000443620F480E28C9320E00EC0842F64E6C1
:100560000E94D902282F205D2C9320538CE99FEF05
:10057000289F802D1124480FFD0131964A3038F410
:10058000222311F480E201C080E380830EC0842F17
:100590006AE00E94D902805D11968C93805326EF09
:1005A0003FEF829F802D1124480F405D41831282CE
:1005B0000895991B79E004C0991F961708F0961BBF
:0E05C000881F7A95C9F780950895F894FFCFAB
:0A05CE0020120132011201000100A9
:00000001FF
