:100000000C9434000C943E000C943E000C943E0082
:100010000C943E000C943E000C943E000C943E0068
:100020000C943E000C943E000C943E000C943E0058
:100030000C943E000C943E000C943E000C943E0048
:100040000C943E000C943E000C943E000C943E0038
:100050000C943E000C943E000C943E000C943E0028
:100060000C943E000C943E0011241FBECFEFD8E04C
:10007000DEBFCDBF0E9449000C947F000C940000AD
:1000800080E090E00000019623E0873E9207D1F7E0
:10009000089584B18FEF84B98AB18C7F8AB981E0E9
:1000A00085B929B140E061E050E839B130FD07C0C1
:1000B0004A3F21F430E021E040E001C04F5F30FDD5
:1000C00014C020FF12C0499908C085B1813011F4D5
:1000D00055B90BC085B1869507C085B1803811F43C
:1000E00065B903C085B1880F85B980E090E0000054
:1000F0000196232F73E0873E9707B9F2F8CFF89463
:02010000FFCF2F
:00000001FF
