:100000000C9434000C943E000C943E000C943E0082
:100010000C943E000C943E000C943E000C943E0068
:100020000C943E000C943E000C943E000C943E0058
:100030000C943E000C943E000C943E000C943E0048
:100040000C943E000C943E000C943E000C943E0038
:100050000C943E000C943E000C943E000C943E0028
:100060000C943E000C943E0011241FBECFEFD8E04C
:10007000DEBFCDBF0E9440000C9467000C940000CE
:1000800084B18FEF84B98AB18C7F8AB981E085B958
:1000900021E090E84899FECF49990DC085B18130A3
:1000A00039F485B985B985B985B985B995B9F2CFDE
:1000B00085B186950AC085B1803829F485B985B99E
:1000C00085B925B9E7CF85B1880F85B9E3CFF89415
:0200D000FFCF60
:00000001FF
