:100000000C9434000C9451000C9451000C94510049
:100010000C9451000C9451000C9451000C9451001C
:100020000C9451000C9451000C9451000C9451000C
:100030000C9451000C9451000C9451000C945100FC
:100040000C9451000C9451000C9451000C945100EC
:100050000C9451000C9451000C9451000C945100DC
:100060000C9451000C94510011241FBECFEFD8E026
:10007000DEBFCDBF11E0A0E0B1E0E4E4F3E002C0F8
:1000800005900D92A631B107D9F711E0A6E1B1E0D4
:1000900001C01D92A731B107E1F70E94E8000C945E
:1000A000A0010C940000882321F080E880931601C1
:1000B0000895109216010895982F92959F70282FF9
:1000C0002F7080911601882311F09068206895B9EF
:1000D00095B9892F806485B985B995B995B925B940
:1000E00025B9822F806485B985B925B925B915B898
:1000F0008AE68A95F1F70895482F42954F70942F1C
:100100009061382F3F70232F206180911601882342
:1001100021F0942F9069232F206995B995B9892FE3
:10012000806485B985B995B995B925B925B9822F66
:10013000806485B985B925B925B915B885E88A954A
:10014000F1F708950F931F9381E00E945C0000EA8D
:100150001FE0C8010197F1F782E00E945C00C8012E
:100160000197F1F71F910F91089580911601982F33
:10017000926095B995B9826485B985B995B995B9F3
:1001800015B885E88A95F1F788E20E945C0086E060
:100190000E945C008CE00E945C000E94A200089516
:1001A000813011F080EC01C080E861506F70862BC7
:1001B0000E945C000895CF93DF93EC0103C00E947E
:1001C0007C00219688818823D1F7DF91CF91089513
:1001D000EF92FF920F931F93DF93CF93CDB7DEB7CC
:1001E00060970FB6F894DEBF0FBECDBF84B18FEF1E
:1001F00084B98CEF8AB917B81092640010927B0012
:1002000083E080937E0080917A00806880937A00FA
:1002100080917A00866080937A0080917A00809342
:100220007A0080917C008F7380937C0080917C00A9
:10023000806280937C0080917C00816080937C0050
:1002400089B10E94B5000E94A20081E061E00E9495
:10025000D00080E091E00E94DB0082E061E00E943B
:10026000D0008CE091E00E94DB008E010F5F1F4FF9
:100270008CE3E82E85E0F82E5C9A89B180917A00B3
:10028000806480937A0080917A0086FDFCCF409153
:10029000790045B9C80165E171E00E945B0182E027
:1002A00067E00E94D000C8010E94DB005C98C70193
:1002B0000197F1F7E1CFDC01FB0102C08D9331968C
:1002C00080818823D9F7443620F480E28C9320E0A3
:1002D0000EC0842F64E60E949401282F205D2C9389
:1002E00020538CE99FEF289F802D1124480FFD019A
:1002F00031964A3038F4222311F480E201C080E3C1
:1003000080830EC0842F6AE00E949401805D119664
:100310008C93805326EF3FEF829F802D1124480F4E
:10032000405D418312820895991B79E004C0991FB2
:10033000961708F0961B881F7A95C9F7809508953F
:04034000F894FFCF5F
:10034400414443204578616D706C65004174746567
:060354006E3D20300000A8
:00000001FF
